{
  "_format": "hh-sol-artifact-1",
  "contractName": "XBridgeRegistry",
  "sourceName": "contracts/XBridgeRegistry.sol",
  "abi": [
    {
      "inputs": [],
      "stateMutability": "nonpayable",
      "type": "constructor"
    },
    {
      "anonymous": false,
      "inputs": [
        {
          "indexed": true,
          "internalType": "uint256",
          "name": "transactionId",
          "type": "uint256"
        },
        {
          "indexed": true,
          "internalType": "address",
          "name": "user",
          "type": "address"
        },
        {
          "indexed": false,
          "internalType": "string",
          "name": "sourceChain",
          "type": "string"
        },
        {
          "indexed": false,
          "internalType": "string",
          "name": "targetChain",
          "type": "string"
        }
      ],
      "name": "TransactionRegistered",
      "type": "event"
    },
    {
      "anonymous": false,
      "inputs": [
        {
          "indexed": true,
          "internalType": "uint256",
          "name": "transactionId",
          "type": "uint256"
        },
        {
          "indexed": false,
          "internalType": "bool",
          "name": "successful",
          "type": "bool"
        }
      ],
      "name": "TransactionStatusUpdated",
      "type": "event"
    },
    {
      "inputs": [
        {
          "internalType": "uint256",
          "name": "_transactionId",
          "type": "uint256"
        }
      ],
      "name": "getTransaction",
      "outputs": [
        {
          "internalType": "address",
          "name": "user",
          "type": "address"
        },
        {
          "internalType": "uint256",
          "name": "timestamp",
          "type": "uint256"
        },
        {
          "internalType": "string",
          "name": "sourceChain",
          "type": "string"
        },
        {
          "internalType": "string",
          "name": "targetChain",
          "type": "string"
        },
        {
          "internalType": "string",
          "name": "sourceToken",
          "type": "string"
        },
        {
          "internalType": "string",
          "name": "targetToken",
          "type": "string"
        },
        {
          "internalType": "uint256",
          "name": "amountIn",
          "type": "uint256"
        },
        {
          "internalType": "uint256",
          "name": "amountOut",
          "type": "uint256"
        },
        {
          "internalType": "string",
          "name": "transactionHash",
          "type": "string"
        },
        {
          "internalType": "bool",
          "name": "successful",
          "type": "bool"
        }
      ],
      "stateMutability": "view",
      "type": "function"
    },
    {
      "inputs": [
        {
          "internalType": "address",
          "name": "_user",
          "type": "address"
        }
      ],
      "name": "getUserTransactionCount",
      "outputs": [
        {
          "internalType": "uint256",
          "name": "",
          "type": "uint256"
        }
      ],
      "stateMutability": "view",
      "type": "function"
    },
    {
      "inputs": [
        {
          "internalType": "address",
          "name": "_user",
          "type": "address"
        }
      ],
      "name": "getUserTransactions",
      "outputs": [
        {
          "internalType": "uint256[]",
          "name": "",
          "type": "uint256[]"
        }
      ],
      "stateMutability": "view",
      "type": "function"
    },
    {
      "inputs": [],
      "name": "owner",
      "outputs": [
        {
          "internalType": "address",
          "name": "",
          "type": "address"
        }
      ],
      "stateMutability": "view",
      "type": "function"
    },
    {
      "inputs": [
        {
          "internalType": "string",
          "name": "_sourceChain",
          "type": "string"
        },
        {
          "internalType": "string",
          "name": "_targetChain",
          "type": "string"
        },
        {
          "internalType": "string",
          "name": "_sourceToken",
          "type": "string"
        },
        {
          "internalType": "string",
          "name": "_targetToken",
          "type": "string"
        },
        {
          "internalType": "uint256",
          "name": "_amountIn",
          "type": "uint256"
        },
        {
          "internalType": "uint256",
          "name": "_amountOut",
          "type": "uint256"
        },
        {
          "internalType": "string",
          "name": "_transactionHash",
          "type": "string"
        }
      ],
      "name": "registerTransaction",
      "outputs": [
        {
          "internalType": "uint256",
          "name": "",
          "type": "uint256"
        }
      ],
      "stateMutability": "nonpayable",
      "type": "function"
    },
    {
      "inputs": [],
      "name": "transactionCount",
      "outputs": [
        {
          "internalType": "uint256",
          "name": "",
          "type": "uint256"
        }
      ],
      "stateMutability": "view",
      "type": "function"
    },
    {
      "inputs": [
        {
          "internalType": "uint256",
          "name": "",
          "type": "uint256"
        }
      ],
      "name": "transactions",
      "outputs": [
        {
          "internalType": "address",
          "name": "user",
          "type": "address"
        },
        {
          "internalType": "uint256",
          "name": "timestamp",
          "type": "uint256"
        },
        {
          "internalType": "string",
          "name": "sourceChain",
          "type": "string"
        },
        {
          "internalType": "string",
          "name": "targetChain",
          "type": "string"
        },
        {
          "internalType": "string",
          "name": "sourceToken",
          "type": "string"
        },
        {
          "internalType": "string",
          "name": "targetToken",
          "type": "string"
        },
        {
          "internalType": "uint256",
          "name": "amountIn",
          "type": "uint256"
        },
        {
          "internalType": "uint256",
          "name": "amountOut",
          "type": "uint256"
        },
        {
          "internalType": "string",
          "name": "transactionHash",
          "type": "string"
        },
        {
          "internalType": "bool",
          "name": "successful",
          "type": "bool"
        }
      ],
      "stateMutability": "view",
      "type": "function"
    },
    {
      "inputs": [
        {
          "internalType": "address",
          "name": "_newOwner",
          "type": "address"
        }
      ],
      "name": "transferOwnership",
      "outputs": [],
      "stateMutability": "nonpayable",
      "type": "function"
    },
    {
      "inputs": [
        {
          "internalType": "uint256",
          "name": "_transactionId",
          "type": "uint256"
        },
        {
          "internalType": "bool",
          "name": "_successful",
          "type": "bool"
        }
      ],
      "name": "updateTransactionStatus",
      "outputs": [],
      "stateMutability": "nonpayable",
      "type": "function"
    },
    {
      "inputs": [
        {
          "internalType": "address",
          "name": "",
          "type": "address"
        },
        {
          "internalType": "uint256",
          "name": "",
          "type": "uint256"
        }
      ],
      "name": "userTransactions",
      "outputs": [
        {
          "internalType": "uint256",
          "name": "",
          "type": "uint256"
        }
      ],
      "stateMutability": "view",
      "type": "function"
    }
  ],
  "bytecode": "0x6080604052348015600f57600080fd5b50336000806101000a81548173ffffffffffffffffffffffffffffffffffffffff021916908373ffffffffffffffffffffffffffffffffffffffff1602179055506000600181905550611c80806100676000396000f3fe608060405234801561001057600080fd5b506004361061009e5760003560e01c8063b77bf60011610066578063b77bf6001461017f578063b842ec441461019d578063d8f33840146101cd578063ef925399146101fd578063f2fde38b1461022d5761009e565b806333ea3dc8146100a357806387e9b57c146100dc5780638da5cb5b1461010c5780638e08867a1461012a5780639ace38c214610146575b600080fd5b6100bd60048036038101906100b89190611068565b610249565b6040516100d39a99989796959493929190611190565b60405180910390f35b6100f660048036038101906100f19190611384565b61067f565b60405161010391906114b2565b60405180910390f35b6101146108cf565b60405161012191906114cd565b60405180910390f35b610144600480360381019061013f9190611514565b6108f3565b005b610160600480360381019061015b9190611068565b610a9b565b6040516101769a99989796959493929190611190565b60405180910390f35b610187610dc4565b60405161019491906114b2565b60405180910390f35b6101b760048036038101906101b29190611580565b610dca565b6040516101c491906114b2565b60405180910390f35b6101e760048036038101906101e291906115c0565b610dfb565b6040516101f491906114b2565b60405180910390f35b610217600480360381019061021291906115c0565b610e47565b60405161022491906116ab565b60405180910390f35b610247600480360381019061024291906115c0565b610ede565b005b600080606080606080600080606060006001548b1061029d576040517f08c379a000000000000000000000000000000000000000000000000000000000815260040161029490611719565b60405180910390fd5b6000600260008d8152602001908152602001600020604051806101400160405290816000820160009054906101000a900473ffffffffffffffffffffffffffffffffffffffff1673ffffffffffffffffffffffffffffffffffffffff1673ffffffffffffffffffffffffffffffffffffffff1681526020016001820154815260200160028201805461032e90611768565b80601f016020809104026020016040519081016040528092919081815260200182805461035a90611768565b80156103a75780601f1061037c576101008083540402835291602001916103a7565b820191906000526020600020905b81548152906001019060200180831161038a57829003601f168201915b505050505081526020016003820180546103c090611768565b80601f01602080910402602001604051908101604052809291908181526020018280546103ec90611768565b80156104395780601f1061040e57610100808354040283529160200191610439565b820191906000526020600020905b81548152906001019060200180831161041c57829003601f168201915b5050505050815260200160048201805461045290611768565b80601f016020809104026020016040519081016040528092919081815260200182805461047e90611768565b80156104cb5780601f106104a0576101008083540402835291602001916104cb565b820191906000526020600020905b8154815290600101906020018083116104ae57829003601f168201915b505050505081526020016005820180546104e490611768565b80601f016020809104026020016040519081016040528092919081815260200182805461051090611768565b801561055d5780601f106105325761010080835404028352916020019161055d565b820191906000526020600020905b81548152906001019060200180831161054057829003601f168201915b50505050508152602001600682015481526020016007820154815260200160088201805461058a90611768565b80601f01602080910402602001604051908101604052809291908181526020018280546105b690611768565b80156106035780601f106105d857610100808354040283529160200191610603565b820191906000526020600020905b8154815290600101906020018083116105e657829003601f168201915b505050505081526020016009820160009054906101000a900460ff1615151515815250509050806000015181602001518260400151836060015184608001518560a001518660c001518760e001518861010001518961012001519a509a509a509a509a509a509a509a509a509a50509193959799509193959799565b60008060015490506040518061014001604052803373ffffffffffffffffffffffffffffffffffffffff1681526020014281526020018a8152602001898152602001888152602001878152602001868152602001858152602001848152602001600015158152506002600083815260200190815260200160002060008201518160000160006101000a81548173ffffffffffffffffffffffffffffffffffffffff021916908373ffffffffffffffffffffffffffffffffffffffff16021790555060208201518160010155604082015181600201908161075f9190611945565b5060608201518160030190816107759190611945565b50608082015181600401908161078b9190611945565b5060a08201518160050190816107a19190611945565b5060c0820151816006015560e082015181600701556101008201518160080190816107cc9190611945565b506101208201518160090160006101000a81548160ff021916908315150217905550905050600360003373ffffffffffffffffffffffffffffffffffffffff1673ffffffffffffffffffffffffffffffffffffffff1681526020019081526020016000208190806001815401808255809150506001900390600052602060002001600090919091909150556001600081548092919061086a90611a46565b91905055503373ffffffffffffffffffffffffffffffffffffffff16817fbd65c7a63781369cfe93f22cfae10a6946ef2db4a1c1a8938dac51f45b7dfb5a8b8b6040516108b8929190611a8e565b60405180910390a380915050979650505050505050565b60008054906101000a900473ffffffffffffffffffffffffffffffffffffffff1681565b60008054906101000a900473ffffffffffffffffffffffffffffffffffffffff1673ffffffffffffffffffffffffffffffffffffffff163373ffffffffffffffffffffffffffffffffffffffff1614806109ae57506002600083815260200190815260200160002060000160009054906101000a900473ffffffffffffffffffffffffffffffffffffffff1673ffffffffffffffffffffffffffffffffffffffff163373ffffffffffffffffffffffffffffffffffffffff16145b6109ed576040517f08c379a00000000000000000000000000000000000000000000000000000000081526004016109e490611b11565b60405180910390fd5b6001548210610a31576040517f08c379a0000000000000000000000000000000000000000000000000000000008152600401610a2890611719565b60405180910390fd5b806002600084815260200190815260200160002060090160006101000a81548160ff021916908315150217905550817ff902060a79f0bd8444bd29bfa24cd072a16e70f9ec51285a0446501924707a6982604051610a8f9190611b31565b60405180910390a25050565b60026020528060005260406000206000915090508060000160009054906101000a900473ffffffffffffffffffffffffffffffffffffffff1690806001015490806002018054610aea90611768565b80601f0160208091040260200160405190810160405280929190818152602001828054610b1690611768565b8015610b635780601f10610b3857610100808354040283529160200191610b63565b820191906000526020600020905b815481529060010190602001808311610b4657829003601f168201915b505050505090806003018054610b7890611768565b80601f0160208091040260200160405190810160405280929190818152602001828054610ba490611768565b8015610bf15780601f10610bc657610100808354040283529160200191610bf1565b820191906000526020600020905b815481529060010190602001808311610bd457829003601f168201915b505050505090806004018054610c0690611768565b80601f0160208091040260200160405190810160405280929190818152602001828054610c3290611768565b8015610c7f5780601f10610c5457610100808354040283529160200191610c7f565b820191906000526020600020905b815481529060010190602001808311610c6257829003601f168201915b505050505090806005018054610c9490611768565b80601f0160208091040260200160405190810160405280929190818152602001828054610cc090611768565b8015610d0d5780601f10610ce257610100808354040283529160200191610d0d565b820191906000526020600020905b815481529060010190602001808311610cf057829003601f168201915b505050505090806006015490806007015490806008018054610d2e90611768565b80601f0160208091040260200160405190810160405280929190818152602001828054610d5a90611768565b8015610da75780601f10610d7c57610100808354040283529160200191610da7565b820191906000526020600020905b815481529060010190602001808311610d8a57829003601f168201915b5050505050908060090160009054906101000a900460ff1690508a565b60015481565b60036020528160005260406000208181548110610de657600080fd5b90600052602060002001600091509150505481565b6000600360008373ffffffffffffffffffffffffffffffffffffffff1673ffffffffffffffffffffffffffffffffffffffff168152602001908152602001600020805490509050919050565b6060600360008373ffffffffffffffffffffffffffffffffffffffff1673ffffffffffffffffffffffffffffffffffffffff168152602001908152602001600020805480602002602001604051908101604052809291908181526020018280548015610ed257602002820191906000526020600020905b815481526020019060010190808311610ebe575b50505050509050919050565b60008054906101000a900473ffffffffffffffffffffffffffffffffffffffff1673ffffffffffffffffffffffffffffffffffffffff163373ffffffffffffffffffffffffffffffffffffffff1614610f6c576040517f08c379a0000000000000000000000000000000000000000000000000000000008152600401610f6390611bbe565b60405180910390fd5b600073ffffffffffffffffffffffffffffffffffffffff168173ffffffffffffffffffffffffffffffffffffffff1603610fdb576040517f08c379a0000000000000000000000000000000000000000000000000000000008152600401610fd290611c2a565b60405180910390fd5b806000806101000a81548173ffffffffffffffffffffffffffffffffffffffff021916908373ffffffffffffffffffffffffffffffffffffffff16021790555050565b6000604051905090565b600080fd5b600080fd5b6000819050919050565b61104581611032565b811461105057600080fd5b50565b6000813590506110628161103c565b92915050565b60006020828403121561107e5761107d611028565b5b600061108c84828501611053565b91505092915050565b600073ffffffffffffffffffffffffffffffffffffffff82169050919050565b60006110c082611095565b9050919050565b6110d0816110b5565b82525050565b6110df81611032565b82525050565b600081519050919050565b600082825260208201905092915050565b60005b8381101561111f578082015181840152602081019050611104565b60008484015250505050565b6000601f19601f8301169050919050565b6000611147826110e5565b61115181856110f0565b9350611161818560208601611101565b61116a8161112b565b840191505092915050565b60008115159050919050565b61118a81611175565b82525050565b6000610140820190506111a6600083018d6110c7565b6111b3602083018c6110d6565b81810360408301526111c5818b61113c565b905081810360608301526111d9818a61113c565b905081810360808301526111ed818961113c565b905081810360a0830152611201818861113c565b905061121060c08301876110d6565b61121d60e08301866110d6565b818103610100830152611230818561113c565b9050611240610120830184611181565b9b9a5050505050505050505050565b600080fd5b600080fd5b7f4e487b7100000000000000000000000000000000000000000000000000000000600052604160045260246000fd5b6112918261112b565b810181811067ffffffffffffffff821117156112b0576112af611259565b5b80604052505050565b60006112c361101e565b90506112cf8282611288565b919050565b600067ffffffffffffffff8211156112ef576112ee611259565b5b6112f88261112b565b9050602081019050919050565b82818337600083830152505050565b6000611327611322846112d4565b6112b9565b90508281526020810184848401111561134357611342611254565b5b61134e848285611305565b509392505050565b600082601f83011261136b5761136a61124f565b5b813561137b848260208601611314565b91505092915050565b600080600080600080600060e0888a0312156113a3576113a2611028565b5b600088013567ffffffffffffffff8111156113c1576113c061102d565b5b6113cd8a828b01611356565b975050602088013567ffffffffffffffff8111156113ee576113ed61102d565b5b6113fa8a828b01611356565b965050604088013567ffffffffffffffff81111561141b5761141a61102d565b5b6114278a828b01611356565b955050606088013567ffffffffffffffff8111156114485761144761102d565b5b6114548a828b01611356565b94505060806114658a828b01611053565b93505060a06114768a828b01611053565b92505060c088013567ffffffffffffffff8111156114975761149661102d565b5b6114a38a828b01611356565b91505092959891949750929550565b60006020820190506114c760008301846110d6565b92915050565b60006020820190506114e260008301846110c7565b92915050565b6114f181611175565b81146114fc57600080fd5b50565b60008135905061150e816114e8565b92915050565b6000806040838503121561152b5761152a611028565b5b600061153985828601611053565b925050602061154a858286016114ff565b9150509250929050565b61155d816110b5565b811461156857600080fd5b50565b60008135905061157a81611554565b92915050565b6000806040838503121561159757611596611028565b5b60006115a58582860161156b565b92505060206115b685828601611053565b9150509250929050565b6000602082840312156115d6576115d5611028565b5b60006115e48482850161156b565b91505092915050565b600081519050919050565b600082825260208201905092915050565b6000819050602082019050919050565b61162281611032565b82525050565b60006116348383611619565b60208301905092915050565b6000602082019050919050565b6000611658826115ed565b61166281856115f8565b935061166d83611609565b8060005b8381101561169e5781516116858882611628565b975061169083611640565b925050600181019050611671565b5085935050505092915050565b600060208201905081810360008301526116c5818461164d565b905092915050565b7f5472616e73616374696f6e20646f6573206e6f74206578697374000000000000600082015250565b6000611703601a836110f0565b915061170e826116cd565b602082019050919050565b60006020820190508181036000830152611732816116f6565b9050919050565b7f4e487b7100000000000000000000000000000000000000000000000000000000600052602260045260246000fd5b6000600282049050600182168061178057607f821691505b60208210810361179357611792611739565b5b50919050565b60008190508160005260206000209050919050565b60006020601f8301049050919050565b600082821b905092915050565b6000600883026117fb7fffffffffffffffffffffffffffffffffffffffffffffffffffffffffffffffff826117be565b61180586836117be565b95508019841693508086168417925050509392505050565b6000819050919050565b600061184261183d61183884611032565b61181d565b611032565b9050919050565b6000819050919050565b61185c83611827565b61187061186882611849565b8484546117cb565b825550505050565b600090565b611885611878565b611890818484611853565b505050565b5b818110156118b4576118a960008261187d565b600181019050611896565b5050565b601f8211156118f9576118ca81611799565b6118d3846117ae565b810160208510156118e2578190505b6118f66118ee856117ae565b830182611895565b50505b505050565b600082821c905092915050565b600061191c600019846008026118fe565b1980831691505092915050565b6000611935838361190b565b9150826002028217905092915050565b61194e826110e5565b67ffffffffffffffff81111561196757611966611259565b5b6119718254611768565b61197c8282856118b8565b600060209050601f8311600181146119af576000841561199d578287015190505b6119a78582611929565b865550611a0f565b601f1984166119bd86611799565b60005b828110156119e5578489015182556001820191506020850194506020810190506119c0565b86831015611a0257848901516119fe601f89168261190b565b8355505b6001600288020188555050505b505050505050565b7f4e487b7100000000000000000000000000000000000000000000000000000000600052601160045260246000fd5b6000611a5182611032565b91507fffffffffffffffffffffffffffffffffffffffffffffffffffffffffffffffff8203611a8357611a82611a17565b5b600182019050919050565b60006040820190508181036000830152611aa8818561113c565b90508181036020830152611abc818461113c565b90509392505050565b7f556e617574686f72697a65640000000000000000000000000000000000000000600082015250565b6000611afb600c836110f0565b9150611b0682611ac5565b602082019050919050565b60006020820190508181036000830152611b2a81611aee565b9050919050565b6000602082019050611b466000830184611181565b92915050565b7f4f6e6c79206f776e65722063616e2063616c6c20746869732066756e6374696f60008201527f6e00000000000000000000000000000000000000000000000000000000000000602082015250565b6000611ba86021836110f0565b9150611bb382611b4c565b604082019050919050565b60006020820190508181036000830152611bd781611b9b565b9050919050565b7f4e6577206f776e65722063616e6e6f74206265207a65726f2061646472657373600082015250565b6000611c146020836110f0565b9150611c1f82611bde565b602082019050919050565b60006020820190508181036000830152611c4381611c07565b905091905056fea2646970667358221220872f40a87720c1e9fe78e099630047cdbe0366430c63131cc7db05ed5b7b445064736f6c634300081c0033",
  "linkReferences": {},
  "deployedLinkReferences": {}
}